:020000040000FA
:100000000C9462000C948A000C948A000C948A0070
:100010000C948A000C948A000C948A000C948A0038
:100020000C948A000C948A000C948A000C948A0028
:100030000C948A000C948A000C948A000C948A0018
:100040000C9457040C948A000C94C7040C94A104DB
:100050000C948A000C948A000C948A000C948A00F8
:100060000C948A000C948A000000000024002700F1
:100070002A0000000000250028002B0000000000DE
:1000800023002600290004040404040404040202DA
:100090000202020203030303030301020408102007
:1000A0004080010204081020010204081020000012
:1000B0000008000201000003040700000000000027
:1000C0000000F90411241FBECFEFD8E0DEBFCDBF82
:1000D00011E0A0E0B1E0E6E2F1E102C005900D928E
:1000E000A234B107D9F722E0A2E4B1E001C01D9229
:1000F000A53FB207E1F710E0C2E6D0E004C02197C7
:10010000FE010E948B08C136D107C9F70E944B053A
:100110000C9491080C94000082E480937C00809100
:100120007A00806480937A0080917A0086FDFCCF0B
:1001300080917800909179000895833081F028F4BF
:10014000813099F08230A9F008958730A9F0883085
:10015000C9F08430B1F4809180008F7D03C080911C
:1001600080008F7780938000089584B58F7784BD59
:10017000089584B58F7DFBCF8091B0008F778093F9
:10018000B00008958091B0008F7DF9CFCF93DF93B9
:10019000282F30E0F901E255FF4F8491F901E6562E
:1001A000FF4FD491F901EA57FF4FC491CC23A1F03E
:1001B00081110E949D00EC2FF0E0EE0FFF1FE4582C
:1001C000FF4FA591B491EC91ED2381E090E009F40B
:1001D00080E0DF91CF91089580E090E0FACF1F9307
:1001E000CF93DF93282F30E0F901E255FF4F849140
:1001F000F901E656FF4FD491F901EA57FF4FC49138
:10020000CC23A9F0162F81110E949D00EC2FF0E065
:10021000EE0FFF1FEE58FF4FA591B4918FB7F894E2
:10022000EC91111108C0D095DE23DC938FBFDF91D4
:10023000CF911F910895DE2BF8CFCF93DF9390E0FD
:10024000FC01E656FF4F24918A579F4FFC01849191
:100250008823D1F090E0880F991FFC01E859FF4FE7
:10026000A591B491FC01EE58FF4FC591D491611155
:100270000EC09FB7F8948C91E22FE0958E238C935B
:100280002881E223E8839FBFDF91CF9108958FB744
:10029000F894EC91E22BEC938FBFF6CF3FB7F89434
:1002A0008091490190914A01A0914B01B0914C017C
:1002B00026B5A89B05C02F3F19F00196A11DB11DC1
:1002C0003FBFBA2FA92F982F8827BC01CD01620FFD
:1002D000711D811D911D42E0660F771F881F991FB8
:1002E0004A95D1F708950F931F938091EC018823CD
:1002F00029F061E08091EA010E941D0160E0809197
:10030000EA010E94EF0083E090E00197F1F761E0DD
:100310008091EA010E94EF0083E290E00197F1F7FB
:1003200060E08091EA010E94EF008091EC01882357
:1003300029F060E08091EA010E941D010E944E01B7
:100340006093ED017093EE018093EF019093F001C3
:100350008091EB010E94C600892BD9F40E944E01C6
:100360000091ED011091EE012091EF013091F0012B
:10037000601B710B820B930B0091F1011091F20144
:100380002091F3013091F401061717072807390768
:10039000F8F60E944E016093ED017093EE01809398
:1003A000EF019093F0018091EB010E94C600892B30
:1003B000D9F00E944E010091ED011091EE012091C3
:1003C000EF013091F001601B710B820B930B0091D8
:1003D000F1011091F2012091F3013091F40106171F
:1003E000170728073907F8F60E944E012091ED0102
:1003F0003091EE01CB01821B930B1F910F91089559
:100400008F929F92AF92BF92CF92DF92EF92FF9224
:100410004B015C010E944E016B017C010E944E0168
:100420006C197D098E099F09683E7340810591050D
:10043000A8F321E0821A9108A108B10888EEC80E3D
:1004400083E0D81EE11CF11C81149104A104B104C5
:1004500029F7FF90EF90DF90CF90BF90AF909F90E3
:100460008F9008952FB7F8946091450170914601DF
:1004700080914701909148012FBF0895AF92BF929C
:10048000CF92DF92EF92FF920F931F93CF93DF9360
:100490006C017B018B01040F151FEB015E01AE188F
:1004A000BF08C017D10759F06991D601ED91FC91B1
:1004B0000190F081E02DC6010995892B79F7C501DE
:1004C000DF91CF911F910F91FF90EF90DF90CF9030
:1004D000BF90AF900895FC01538D448D252F30E0DF
:1004E000842F90E0821B930B541710F0CF96089541
:1004F00001970895FC01918D828D981761F0A28D6E
:10050000AE0FBF2FB11D5D968C91928D9F5F9F7333
:10051000928F90E008958FEF9FEF0895FC01918DE9
:10052000828D981731F0828DE80FF11D858D90E056
:1005300008958FEF9FEF0895FC01918D228D892FF3
:1005400090E0805C9F4F821B91098F7399270895DB
:100550008DE491E00E949C0221E0892B09F420E0C7
:10056000822F089580E090E0892B29F00E94A80254
:1005700081110C9400000895FC01A48DA80FB92FDF
:10058000B11DA35ABF4F2C91848D90E001968F73BB
:100590009927848FA689B7892C93A089B1898C91DA
:1005A000837080648C93938D848D981306C0028829
:1005B000F389E02D80818F7D80830895EF92FF92F3
:1005C0000F931F93CF93DF93EC0181E0888F9B8D76
:1005D0008C8D98131AC0E889F989808185FF15C030
:1005E0009FB7F894EE89FF896083E889F989808153
:1005F0008370806480839FBF81E090E0DF91CF9122
:100600001F910F91FF90EF900895F62E0B8D10E043
:100610000F5F1F4F0F731127E02E8C8D8E110CC0B2
:100620000FB607FCFACFE889F989808185FFF5CFFD
:10063000CE010E94BC02F1CFEB8DEC0FFD2FF11D1E
:10064000E35AFF4FF0829FB7F8940B8FEA89FB893A
:1006500080818062CFCFCF93DF93EC01888D882398
:10066000B9F0AA89BB89E889F9898C9185FD03C015
:10067000808186FD0DC00FB607FCF7CF8C9185FFFA
:10068000F2CF808185FFEDCFCE010E94BC02E9CF81
:10069000DF91CF910895FC0101900020E9F7319797
:1006A000AF01481B590BBC018DE491E00C943E0254
:1006B000CF93DF930E944B03EC0182E191E00E9413
:1006C0004B038C0F9D1FDF91CF9108958F929F92C6
:1006D000AF92BF92CF92DF92EF92FF920F931F9350
:1006E000CF93DF93CDB7DEB7A1970FB6F894DEBFF7
:1006F0000FBECDBF6B017C01F7FE41C06DE28DE402
:1007000091E00E94DE028C0122273327A9012C19D7
:100710003D094E095F0919A2CE0181967C019AE03C
:10072000892E912CA12CB12CCA01B901A5019401EB
:100730000E946908605DF70162937F012115310510
:100740004105510589F790E080E0309719F0CF011D
:100750000E944B03800F911FA1960FB6F894DEBF45
:100760000FBECDBFDF91CF911F910F91FF90EF9002
:10077000DF90CF90BF90AF909F908F900895AC0185
:100780009B0119A28E010F5D1F4F8AE0C82ED12C4C
:10079000E12CF12CCA01B901A70196010E94690858
:1007A000605DF80162938F01211531054105510506
:1007B00089F790E080E0309779F2CF010E944B03F7
:1007C000CBCF0F931F93CF93DF930E94730168E306
:1007D00070E00E945508CB0144978931914008F49C
:1007E00061C0EB0108E310E06497C931D14008F023
:1007F00042C0C8E3D0E08091420190914301863924
:1008000091050CF04FC00E947301BE010E94550873
:10081000CB0145978731914018F1072E000C880BCA
:10082000990B0E94660361E083E00E94EF0085E17E
:1008300091E00E94580361E086E00E94EF0064EFBF
:1008400071E080E090E00E94000260E086E00E949B
:10085000EF0064EF71E080E090E00E940002D3CFEF
:100860008DE191E00E9458030E948C009093430117
:1008700080934201C0CF60E082E00E94EF0060E020
:1008800083E00E94EF0085E191E00E9458030E94FE
:100890007301B8010E945508EB0190E080E00E94CE
:1008A0006603A2CFDF91CF911F910F9108951F9200
:1008B0000F920FB60F9211242F933F938F939F9314
:1008C000AF93BF938091450190914601A09147015C
:1008D000B09148013091440123E0230F2D3758F5A2
:1008E0000196A11DB11D2093440180934501909371
:1008F0004601A0934701B09348018091490190912E
:100900004A01A0914B01B0914C010196A11DB11D6E
:100910008093490190934A01A0934B01B0934C01FD
:10092000BF91AF919F918F913F912F910F900FBEEB
:100930000F901F90189526E8230F0296A11DB11D58
:10094000D2CF1F920F920FB60F9211242F933F9385
:100950004F935F936F937F938F939F93AF93BF93C7
:10096000EF93FF938DE491E00E94BC02FF91EF9121
:10097000BF91AF919F918F917F916F915F914F91B7
:100980003F912F910F900FBE0F901F9018951F92BF
:100990000F920FB60F9211242F938F939F93EF9383
:1009A000FF93E0915D01F0915E018081E091630130
:1009B000F091640182FD1BC09081809166018F5F80
:1009C0008F7320916701821741F0E0916601F0E09A
:1009D000E35BFE4F958F80936601FF91EF919F91AE
:1009E0008F912F910F900FBE0F901F9018958081BF
:1009F000F4CFCF93DF93EDE4F1E01382128288EE1F
:100A000093E0A0E0B0E084839583A683B78384E07D
:100A100091E09183808385EC90E09587848784ECD6
:100A200090E09787868780EC90E0918B808B81ECBB
:100A300090E0938B828B82EC90E0958B848B86EC9C
:100A400090E0978B868B118E128E138E148E80E021
:100A500091E0E5EFF1E0DF019C011D922150304073
:100A6000E1F7CAEED1E08CE088838DE089831A82B9
:100A700061E08CE00E941D0160E089810E941D01FF
:100A800080E29EE4A0E0B0E08F839887A987BA87D0
:100A9000DF91CF910895789484B5826084BD84B548
:100AA000816084BD85B5826085BD85B5816085BD69
:100AB00080916E00816080936E0010928100809121
:100AC00081008260809381008091810081608093A9
:100AD0008100809180008160809380008091B100CE
:100AE00084608093B1008091B00081608093B000F9
:100AF00080917A00846080937A0080917A0082608D
:100B000080937A0080917A00816080937A0080914E
:100B10007A00806880937A001092C10061E082E0E0
:100B20000E941D0161E083E00E941D0160E080E100
:100B30000E941D0161E085E00E941D0161E086E0E8
:100B40000E941D0160E086E00E94EF0060E087E007
:100B50000E941D01E0915D01F0915E0182E08083C1
:100B6000E0915901F0915A011082E0915B01F091FE
:100B70005C018FEC808310926501E0916101F0913E
:100B8000620186E08083E0915F01F09160018081E5
:100B900080618083E0915F01F091600180818860D5
:100BA0008083E0915F01F0916001808180688083A3
:100BB000E0915F01F091600180818F7D808386E903
:100BC000282E312C16E90E94730168E370E00E9420
:100BD00055087B010E948C006C01BC01990F880BA9
:100BE000990B0E945C0726E636E64CE951E40E9428
:100BF000C0070E9424074B015C01C5EFD1E088814A
:100C00009981892BB9F10E9432022B013C018C8120
:100C10009D81AE81BF81B301A201481B590B6A0BB4
:100C20007B0B88859985AA85BB85481759076A0774
:100C30007B0700F1E881F9818A819B8109958823EE
:100C400051F081E04C855D856E857F85452B462B77
:100C5000472B09F480E0482F50E070E060E04C87BB
:100C60005D876E877F87882309F466C04C825D822A
:100C70006E827F82609622E0C53FD20708F4BFCF24
:100C80000E943202C5EFD1E088819981892B09F059
:100C900064C0609632E0C53FD307B0F30E943202D1
:100CA00087E291E00E944B03B70190E080E00E9450
:100CB000660382E391E00E94580386E391E00E947C
:100CC0004B03C501B4010E9466038EE391E00E94CC
:100CD000580384E1E81AF10899E1E91691E0F90670
:100CE00008F467C00E943202E5EFF1E02081318113
:100CF000232B09F447C07096A2E0E53FFA07B0F352
:100D000061E0C114F2E0DF060CF460E085E00E94CF
:100D1000EF0068EC70E080E090E00E94000220E0CC
:100D200030E0232B09F44FCF0E94A802882309F456
:100D300049CF0E94000046CF198218821B821A8276
:100D40001C821D821E821F82188619861A861B86A7
:100D50001C861D861E861F868DCF0E9432024C8007
:100D60005D806E807F8064197509860997094884C3
:100D700059846A847B84641575058605970508F493
:100D800088CF8CCF21EE33E031832083138212820F
:100D9000648375838683978384EC99E0A0E0B0E058
:100DA00080879187A287B387148615861686178653
:100DB000A7CF60E086E00E94EF0061E08EE00E9435
:100DC0001D01ECEBF0E08491833021F148F4813097
:100DD000B9F08230D1F061E08EE00E94EF0090CF58
:100DE000873011F1883041F18430A9F7809180007B
:100DF00080628093800030928B0020928A0080CFA6
:100E000084B5806884BD17BD7BCF84B5806284BD06
:100E100018BD76CF809180008068809380003092EA
:100E20008900209288006CCF8091B0008068809308
:100E3000B0001093B30064CF8091B00080628093C3
:100E4000B0001093B4005CCF0E942B076894B111DE
:100E50000C94BA0708950E949F0788F09F5798F056
:100E6000B92F9927B751B0F0E1F0660F771F881FAF
:100E7000991F1AF0BA95C9F714C0B13091F00E94C9
:100E8000B907B1E008950C94B907672F782F882728
:100E9000B85F39F0B93FCCF3869577956795B395F0
:100EA000D9F73EF490958095709561957F4F8F4F5F
:100EB0009F4F0895E89409C097FB3EF49095809564
:100EC000709561957F4F8F4F9F4F9923A9F0F92F10
:100ED00096E9BB279395F695879577956795B7958E
:100EE000F111F8CFFAF4BB0F11F460FF1BC06F5F74
:100EF0007F4F8F4F9F4F16C0882311F096E911C086
:100F0000772321F09EE8872F762F05C0662371F0A6
:100F100096E8862F70E060E02AF09A95660F771FBA
:100F2000881FDAF7880F9695879597F9089557FDEA
:100F30009058440F551F59F05F3F71F04795880F47
:100F400097FB991F61F09F3F79F0879508951216DE
:100F500013061406551FF2CF4695F1DF08C016168A
:100F600017061806991FF1CF86957105610508943B
:100F70000895E894BB2766277727CB0197F9089552
:100F80000E94D3070C9444080E94360838F00E944F
:100F90003D0820F0952311F00C942D080C94330893
:100FA00011240C94BA070E94970770F3959FC1F320
:100FB000950F50E0551F629FF001729FBB27F00D07
:100FC000B11D639FAA27F00DB11DAA1F649F66275C
:100FD000B00DA11D661F829F2227B00DA11D621FAB
:100FE000739FB00DA11D621F839FA00D611D221F65
:100FF000749F3327A00D611D231F849F600D211D49
:10100000822F762F6A2F11249F5750409AF0F1F0CB
:1010100088234AF0EE0FFF1FBB1F661F771F881F34
:1010200091505040A9F79E3F510580F00C942D0837
:101030000C94BA075F3FE4F3983ED4F38695779516
:101040006795B795F795E7959F5FC1F7FE2B880FDA
:10105000911D9695879597F9089597F99F6780E870
:1010600070E060E008959FEF80EC089500240A94FA
:101070001616170618060906089500240A94121673
:101080001306140605060895092E0394000C11F4A6
:10109000882352F0BB0F40F4BF2B11F460FF04C053
:1010A0006F5F7F4F8F4F9F4F0895AA1BBB1B51E16E
:1010B00007C0AA1FBB1FA617B70710F0A61BB70BC8
:1010C000881F991F5A95A9F780959095BC01CD016D
:1010D0000895A1E21A2EAA1BBB1BFD010DC0AA1F79
:1010E000BB1FEE1FFF1FA217B307E407F50720F091
:1010F000A21BB30BE40BF50B661F771F881F991F0C
:101100001A9469F760957095809590959B01AC0154
:10111000BD01CF010895EE0FFF1F0590F491E02D62
:101120000994F894FFCF00000000DE023E026B023B
:101130002B039C027A028E020D0A005741524E493F
:101140004E4700706F6E7420656E206800446973AE
:1011500074616E63653A200020636D00506F6964AE
:08116000733A20002067000033
:107E0000112484B714BE81FFF0D085E080938100F7
:107E100082E08093C00088E18093C10086E0809377
:107E2000C20080E18093C4008EE0C9D0259A86E02C
:107E300020E33CEF91E0309385002093840096BBD3
:107E4000B09BFECF1D9AA8958150A9F7CC24DD24C4
:107E500088248394B5E0AB2EA1E19A2EF3E0BF2EE7
:107E6000A2D0813461F49FD0082FAFD0023811F036
:107E7000013811F484E001C083E08DD089C08234E0
:107E800011F484E103C0853419F485E0A6D080C0E4
:107E9000853579F488D0E82EFF2485D0082F10E0AE
:107EA000102F00270E291F29000F111F8ED06801E7
:107EB0006FC0863521F484E090D080E0DECF843638
:107EC00009F040C070D06FD0082F6DD080E0C81688
:107ED00080E7D80618F4F601B7BEE895C0E0D1E017
:107EE00062D089930C17E1F7F0E0CF16F0E7DF06D8
:107EF00018F0F601B7BEE89568D007B600FCFDCFD4
:107F0000A601A0E0B1E02C9130E011968C91119780
:107F100090E0982F8827822B932B1296FA010C0160
:107F200087BEE89511244E5F5F4FF1E0A038BF0790
:107F300051F7F601A7BEE89507B600FCFDCF97BE46
:107F4000E89526C08437B1F42ED02DD0F82E2BD052
:107F50003CD0F601EF2C8F010F5F1F4F84911BD097
:107F6000EA94F801C1F70894C11CD11CFA94CF0C13
:107F7000D11C0EC0853739F428D08EE10CD085E9AC
:107F80000AD08FE07ACF813511F488E018D01DD067
:107F900080E101D065CF982F8091C00085FFFCCF94
:107FA0009093C60008958091C00087FFFCCF809118
:107FB000C00084FD01C0A8958091C6000895E0E648
:107FC000F0E098E1908380830895EDDF803219F02E
:107FD00088E0F5DFFFCF84E1DECF1F93182FE3DFCA
:107FE0001150E9F7F2DF1F91089580E0E8DFEE27F6
:047FF000FF270994CA
:027FFE00040479
:00000001FF
