:100000000C9462000C948A000C948A000C948A0070
:100010000C948A000C948A000C948A000C948A0038
:100020000C948A000C948A000C948A000C948A0028
:100030000C948A000C948A000C948A000C948A0018
:100040000C94E6030C948A000C9456040C9430042F
:100050000C948A000C948A000C948A000C948A00F8
:100060000C948A000C948A000000000024002700F1
:100070002A0000000000250028002B0000000000DE
:1000800023002600290004040404040404040202DA
:100090000202020203030303030301020408102007
:1000A0004080010204081020010204081020000012
:1000B0000008000201000003040700000000000027
:1000C0000000880411241FBECFEFD8E0DEBFCDBFF3
:1000D00011E0A0E0B1E0EAE6F0E102C005900D9287
:1000E000A833B107D9F722E0A8E3B1E001C01D921F
:1000F000A93EB207E1F710E0C2E6D0E004C02197C4
:10010000FE010E942D08C136D107C9F70E94DA040A
:100110000C9433080C940000833081F028F4813073
:1001200099F08230A9F008958730A9F08830C9F09D
:100130008430B1F4809180008F7D03C08091800075
:100140008F7780938000089584B58F7784BD08955C
:1001500084B58F7DFBCF8091B0008F778093B00006
:1001600008958091B0008F7DF9CFCF93DF93282F32
:1001700030E0F901E255FF4F8491F901E656FF4F57
:10018000D491F901EA57FF4FC491CC23A1F081111A
:100190000E948C00EC2FF0E0EE0FFF1FE458FF4FA1
:1001A000A591B491EC91ED2381E090E009F480E019
:1001B000DF91CF91089580E090E0FACF1F93CF9325
:1001C000DF93282F30E0F901E255FF4F8491F901C8
:1001D000E656FF4FD491F901EA57FF4FC491CC2363
:1001E000A9F0162F81110E948C00EC2FF0E0EE0F89
:1001F000FF1FEE58FF4FA591B4918FB7F894EC9183
:10020000111108C0D095DE23DC938FBFDF91CF9111
:100210001F910895DE2BF8CFCF93DF9390E0FC0180
:10022000E656FF4F24918A579F4FFC018491882303
:10023000D1F090E0880F991FFC01E859FF4FA5917C
:10024000B491FC01EE58FF4FC591D49161110EC0DD
:100250009FB7F8948C91E22FE0958E238C932881A0
:10026000E223E8839FBFDF91CF9108958FB7F89481
:10027000EC91E22BEC938FBFF6CF3FB7F8948091CF
:100280003D0190913E01A0913F01B091400126B502
:10029000A89B05C02F3F19F00196A11DB11D3FBFBE
:1002A000BA2FA92F982F8827BC01CD01620F711D8D
:1002B000811D911D42E0660F771F881F991F4A9587
:1002C000D1F708950F931F938091E001882329F0BF
:1002D00061E08091DE010E940C0160E08091DE010E
:1002E0000E94DE0083E090E00197F1F761E08091E9
:1002F000DE010E94DE0083E290E00197F1F760E00A
:100300008091DE010E94DE008091E001882329F0C7
:1003100060E08091DE010E940C010E943D0160932B
:10032000E1017093E2018093E3019093E4018091F5
:10033000DF010E94B500892BD9F40E943D01009194
:10034000E1011091E2012091E3013091E401601B91
:10035000710B820B930B0091E5011091E601209146
:10036000E7013091E8010617170728073907F8F663
:100370000E943D016093E1017093E2018093E301EB
:100380009093E4018091DF010E94B500892BD9F0A0
:100390000E943D010091E1011091E2012091E301F1
:1003A0003091E401601B710B820B930B0091E5010E
:1003B0001091E6012091E7013091E8010617170737
:1003C00028073907F8F60E943D012091E10130919C
:1003D000E201CB01821B930B1F910F9108958F9225
:1003E0009F92AF92BF92CF92DF92EF92FF924B011A
:1003F0005C010E943D016B017C010E943D016C1972
:100400007D098E099F09683E734081059105A8F317
:1004100021E0821A9108A108B10888EEC80E83E095
:10042000D81EE11CF11C81149104A104B10429F728
:10043000FF90EF90DF90CF90BF90AF909F908F9004
:1004400008952FB7F8946091390170913A01809125
:100450003B0190913C012FBF0895AF92BF92CF9284
:10046000DF92EF92FF920F931F93CF93DF936C0174
:100470007B018B01040F151FEB015E01AE18BF0855
:10048000C017D10759F06991D601ED91FC91019007
:10049000F081E02DC6010995892B79F7C501DF911F
:1004A000CF911F910F91FF90EF90DF90CF90BF9071
:1004B000AF900895FC01538D448D252F30E0842F9B
:1004C00090E0821B930B541710F0CF96089501977C
:1004D0000895FC01918D828D981761F0A28DAE0F69
:1004E000BF2FB11D5D968C91928D9F5F9F73928FF0
:1004F00090E008958FEF9FEF0895FC01918D828D1C
:10050000981731F0828DE80FF11D858D90E00895E8
:100510008FEF9FEF0895FC01918D228D892F90E040
:10052000805C9F4F821B91098F739927089581E406
:1005300091E00E948B0221E0892B09F420E0822FB8
:10054000089580E090E0892B29F00E9497028111A4
:100550000C9400000895FC01A48DA80FB92FB11DC3
:10056000A35ABF4F2C91848D90E001968F739927E9
:10057000848FA689B7892C93A089B1898C918370C7
:1005800080648C93938D848D981306C00288F389C0
:10059000E02D80818F7D80830895EF92FF920F93ED
:1005A0001F93CF93DF93EC0181E0888F9B8D8C8D1F
:1005B00098131AC0E889F989808185FF15C09FB713
:1005C000F894EE89FF896083E889F98980818370D6
:1005D000806480839FBF81E090E0DF91CF911F9185
:1005E0000F91FF90EF900895F62E0B8D10E00F5FA6
:1005F0001F4F0F731127E02E8C8D8E110CC00FB67C
:1006000007FCFACFE889F989808185FFF5CFCE0113
:100610000E94AB02F1CFEB8DEC0FFD2FF11DE35AE1
:10062000FF4FF0829FB7F8940B8FEA89FB89808196
:100630008062CFCFCF93DF93EC01888D8823B9F010
:10064000AA89BB89E889F9898C9185FD03C08081DD
:1006500086FD0DC00FB607FCF7CF8C9185FFF2CF5A
:10066000808185FFEDCFCE010E94AB02E9CFDF9103
:10067000CF910895FC0101900020E9F73197AF0177
:10068000481B590BBC0181E491E00C942D028F9220
:100690009F92AF92BF920F931F93CF93DF93CDB7EB
:1006A000DEB7A1970FB6F894DEBF0FBECDBF19A27B
:1006B000423008F44AE08E010F5D1F4F842E912CCA
:1006C000B12CA12CA50194010E940B08E62FB901C1
:1006D000CA01EA30F4F4E05DD801EE938D01232BDA
:1006E000242B252B79F790E080E0109719F0CD01AD
:1006F0000E943A03A1960FB6F894DEBF0FBECDBF9D
:10070000DF91CF911F910F91BF90AF909F908F90ED
:100710000895E95CE1CFCF92DF92EF92FF92CF9301
:10072000DF936B017C016DE281E491E00E94CD02D8
:10073000EC0166277727CB016C197D098E099F098B
:100740004AE00E9447038C0F9D1FDF91CF91FF90DD
:10075000EF90DF90CF900895CF93DF930E943A03FC
:10076000EC0182E191E00E943A038C0F9D1FDF9122
:10077000CF9108950E94620168E370E00E94F7073C
:10078000645171096931714000F185E191E00E9485
:10079000AC0361E08EE00E940C0161E08EE00E94FB
:1007A000DE0061E086E00E94DE0064EF71E080E040
:1007B00090E00E94EF0160E086E00E94DE0064EFBE
:1007C00071E080E090E00E94EF0108951F920F9287
:1007D0000FB60F9211242F933F938F939F93AF9354
:1007E000BF938091390190913A01A0913B01B09162
:1007F0003C013091380123E0230F2D3758F5019645
:10080000A11DB11D209338018093390190933A01C5
:10081000A0933B01B0933C0180913D0190913E013A
:10082000A0913F01B09140010196A11DB11D80939F
:100830003D0190933E01A0933F01B0934001BF91D1
:10084000AF919F918F913F912F910F900FBE0F907D
:100850001F90189526E8230F0296A11DB11DD2CF37
:100860001F920F920FB60F9211242F933F934F9325
:100870005F936F937F938F939F93AF93BF93EF9308
:10088000FF9381E491E00E94AB02FF91EF91BF9151
:10089000AF919F918F917F916F915F914F913F9118
:1008A0002F910F900FBE0F901F9018951F920F92CF
:1008B0000FB60F9211242F938F939F93EF93FF9373
:1008C000E0915101F09152018081E0915701F09146
:1008D000580182FD1BC0908180915A018F5F8F73F8
:1008E00020915B01821741F0E0915A01F0E0EF5B4B
:1008F000FE4F958F80935A01FF91EF919F918F91B9
:100900002F910F900FBE0F901F9018958081F4CFFC
:10091000CF93DF93E1E4F1E01382128288EE93E05B
:10092000A0E0B0E084839583A683B78384E091E060
:100930009183808385EC90E09587848784EC90E0B8
:100940009787868780EC90E0918B808B81EC90E09C
:10095000938B828B82EC90E0958B848B86EC90E07D
:10096000978B868B118E128E138E148E80E091E001
:10097000E9EEF1E0DF019C011D9221503040E1F7EA
:10098000CEEDD1E08CE088838DE089831A8261E02E
:100990008CE00E940C0160E089810E940C0180E2E1
:1009A0009EE4A0E0B0E08F839887A987BA87DF91A3
:1009B000CF910895789484B5826084BD84B58160B8
:1009C00084BD85B5826085BD85B5816085BD80911A
:1009D0006E00816080936E00109281008091810092
:1009E000826080938100809181008160809381008A
:1009F000809180008160809380008091B10084604C
:100A00008093B1008091B00081608093B0008091AC
:100A10007A00846080937A0080917A00826080936B
:100A20007A0080917A00816080937A0080917A00C8
:100A3000806880937A001092C10061E08EE00E948D
:100A40000C0160E080E10E940C0161E085E00E9401
:100A50000C0161E086E00E940C0160E086E00E94EB
:100A6000DE0060E087E00E940C01E0915101F0910E
:100A7000520182E08083E0914D01F0914E0110829D
:100A8000E0914F01F09150018FEC80831092590159
:100A9000E0915501F091560186E08083E091530189
:100AA000F0915401808180618083E0915301F09145
:100AB0005401808188608083E0915301F09154015A
:100AC000808180688083E0915301F091540180819E
:100AD0008F7D808386E9282E312C02E416E90E945E
:100AE000620168E370E00E94F7077B0100937C00DD
:100AF00080917A00806480937A0080917A0086FDEC
:100B0000FCCFC0907800D0907900B6010D2C000C7D
:100B1000880B990B0E94FE0626E636E64CE951E466
:100B20000E9462070E94C6064B015C01C9EED1E03B
:100B300088819981892BB9F10E9421022B013C0106
:100B40008C819D81AE81BF81B301A201481B590BED
:100B50006A0B7B0B88859985AA85BB854817590741
:100B60006A077B0700F1E881F9818A819B810995F9
:100B7000882351F081E04C855D856E857F85452B0E
:100B8000462B472B09F480E0482F50E070E060E0EE
:100B90004C875D876E877F87882309F469C04C8204
:100BA0005D826E827F82609622E0C93ED20708F4A1
:100BB000BFCF0E942102C9EED1E088819981892BA3
:100BC00009F067C0609632E0C93ED307B0F30E94D7
:100BD00021028DE191E00E943A03B70190E080E0AC
:100BE0004AE00E94470388E291E00E94AC038CE255
:100BF00091E00E943A03B7FE61C0C501B4010E94B2
:100C00008B0384E391E00E94AC0384E1E81AF108CD
:100C100099E1E91691E0F90608F46DC00E942102FD
:100C2000E9EEF1E020813181232B09F44DC070966B
:100C3000A2E0E93EFA07B0F361E0C114F2E0DF069A
:100C40000CF460E085E00E94DE0068EC70E080E07B
:100C500090E00E94EF0120E030E0232B09F43FCF29
:100C60000E949702882309F438CF0E94000035CFF4
:100C7000198218821B821A821C821D821E821F8288
:100C8000188619861A861B861C861D861E861F8658
:100C90008ACF0E9421024C805D806E807F80641923
:100CA000750986099709488459846A847B84641588
:100CB00075058605970508F485CF89CF4AE0C501FB
:100CC000B4010E9447039DCF2AEB33E03183208398
:100CD00013821282648375838683978384EC99E000
:100CE000A0E0B0E080879187A287B387148615863D
:100CF00016861786A1CF60E086E00E94DE0061E0E4
:100D00008EE00E940C01ECEBF0E08491833021F145
:100D100048F48130B9F08230D1F061E08EE00E9479
:100D2000DE008ACF873011F1883041F18430A9F795
:100D30008091800080628093800030928B002092AE
:100D40008A007ACF84B5806884BD17BD75CF84B51D
:100D5000806284BD18BD70CF8091800080688093D0
:100D60008000309289002092880066CF8091B00088
:100D700080688093B0001093B3005ECF8091B00084
:100D800080628093B0001093B40056CF0E94CD06CD
:100D90006894B1110C945C0708950E94410788F093
:100DA0009F5798F0B92F9927B751B0F0E1F0660F2F
:100DB000771F881F991F1AF0BA95C9F714C0B13070
:100DC00091F00E945B07B1E008950C945B07672FD8
:100DD000782F8827B85F39F0B93FCCF3869577959F
:100DE0006795B395D9F73EF4909580957095619588
:100DF0007F4F8F4F9F4F0895E89409C097FB3EF4B3
:100E000090958095709561957F4F8F4F9F4F992357
:100E1000A9F0F92F96E9BB279395F69587957795D5
:100E20006795B795F111F8CFFAF4BB0F11F460FF95
:100E30001BC06F5F7F4F8F4F9F4F16C0882311F0ED
:100E400096E911C0772321F09EE8872F762F05C001
:100E5000662371F096E8862F70E060E02AF09A959C
:100E6000660F771F881FDAF7880F9695879597F991
:100E7000089557FD9058440F551F59F05F3F71F08A
:100E80004795880F97FB991F61F09F3F79F08795F1
:100E90000895121613061406551FF2CF4695F1DF7A
:100EA00008C0161617061806991FF1CF869571050A
:100EB000610508940895E894BB2766277727CB013E
:100EC00097F908950E9475070C94E6070E94D807C9
:100ED00038F00E94DF0720F0952311F00C94CF0723
:100EE0000C94D50711240C945C070E94390770F309
:100EF000959FC1F3950F50E0551F629FF001729FBF
:100F0000BB27F00DB11D639FAA27F00DB11DAA1FCD
:100F1000649F6627B00DA11D661F829F2227B00D1A
:100F2000A11D621F739FB00DA11D621F839FA00DA5
:100F3000611D221F749F3327A00D611D231F849FF5
:100F4000600D211D822F762F6A2F11249F5750404C
:100F50009AF0F1F088234AF0EE0FFF1FBB1F661FC7
:100F6000771F881F91505040A9F79E3F510580F090
:100F70000C94CF070C945C075F3FE4F3983ED4F3E6
:100F8000869577956795B795F795E7959F5FC1F734
:100F9000FE2B880F911D9695879597F9089597F9DF
:100FA0009F6780E870E060E008959FEF80EC08950F
:100FB00000240A9416161706180609060895002438
:100FC0000A9412161306140605060895092E0394B2
:100FD000000C11F4882352F0BB0F40F4BF2B11F426
:100FE00060FF04C06F5F7F4F8F4F9F4F0895AA1B14
:100FF000BB1B51E107C0AA1FBB1FA617B70710F004
:10100000A61BB70B881F991F5A95A9F78095909535
:10101000BC01CD010895A1E21A2EAA1BBB1BFD0144
:101020000DC0AA1FBB1FEE1FFF1FA217B307E407C7
:10103000F50720F0A21BB30BE40BF50B661F771F1F
:10104000881F991F1A9469F76095709580959095FF
:101050009B01AC01BD01CF010895EE0FFF1F05906C
:0A106000F491E02D0994F894FFCFFD
:10106A0000000000CD022D025A021A038B02690207
:10107A007D020D0A005741524E494E47004469739A
:10108A0074616E63653A200020636D00506F696475
:08109A00733A200020670000FA
:00000001FF
