:020000040000FA
:100000000C9462000C948A000C948A000C948A0070
:100010000C948A000C948A000C948A000C948A0038
:100020000C948A000C948A000C948A000C948A0028
:100030000C948A000C948A000C948A000C948A0018
:100040000C94E6030C948A000C9456040C9430042F
:100050000C948A000C948A000C948A000C948A00F8
:100060000C948A000C948A000000000024002700F1
:100070002A0000000000250028002B0000000000DE
:1000800023002600290004040404040404040202DA
:100090000202020203030303030301020408102007
:1000A0004080010204081020010204081020000012
:1000B0000008000201000003040700000000000027
:1000C0000000880411241FBECFEFD8E0DEBFCDBFF3
:1000D00011E0A0E0B1E0ECE7F0E102C005900D9284
:1000E000AC33B107D9F722E0ACE3B1E001C01D9217
:1000F000AD3EB207E1F710E0C2E6D0E004C02197C0
:10010000FE010E943608C136D107C9F70E94DA0401
:100110000C943C080C940000833081F028F481306A
:1001200099F08230A9F008958730A9F08830C9F09D
:100130008430B1F4809180008F7D03C08091800075
:100140008F7780938000089584B58F7784BD08955C
:1001500084B58F7DFBCF8091B0008F778093B00006
:1001600008958091B0008F7DF9CFCF93DF93282F32
:1001700030E0F901E255FF4F8491F901E656FF4F57
:10018000D491F901EA57FF4FC491CC23A1F081111A
:100190000E948C00EC2FF0E0EE0FFF1FE458FF4FA1
:1001A000A591B491EC91ED2381E090E009F480E019
:1001B000DF91CF91089580E090E0FACF1F93CF9325
:1001C000DF93282F30E0F901E255FF4F8491F901C8
:1001D000E656FF4FD491F901EA57FF4FC491CC2363
:1001E000A9F0162F81110E948C00EC2FF0E0EE0F89
:1001F000FF1FEE58FF4FA591B4918FB7F894EC9183
:10020000111108C0D095DE23DC938FBFDF91CF9111
:100210001F910895DE2BF8CFCF93DF9390E0FC0180
:10022000E656FF4F24918A579F4FFC018491882303
:10023000D1F090E0880F991FFC01E859FF4FA5917C
:10024000B491FC01EE58FF4FC591D49161110EC0DD
:100250009FB7F8948C91E22FE0958E238C932881A0
:10026000E223E8839FBFDF91CF9108958FB7F89481
:10027000EC91E22BEC938FBFF6CF3FB7F8948091CF
:10028000410190914201A0914301B091440126B5F2
:10029000A89B05C02F3F19F00196A11DB11D3FBFBE
:1002A000BA2FA92F982F8827BC01CD01620F711D8D
:1002B000811D911D42E0660F771F881F991F4A9587
:1002C000D1F708950F931F938091E401882329F0BB
:1002D00061E08091E2010E940C0160E08091E20106
:1002E0000E94DE0083E090E00197F1F761E08091E9
:1002F000E2010E94DE0083E290E00197F1F760E006
:100300008091E2010E94DE008091E401882329F0BF
:1003100060E08091E2010E940C010E943D01609327
:10032000E5017093E6018093E7019093E8018091E5
:10033000E3010E94B500892BD9F40E943D01009190
:10034000E5011091E6012091E7013091E801601B81
:10035000710B820B930B0091E9011091EA0120913E
:10036000EB013091EC010617170728073907F8F65B
:100370000E943D016093E5017093E6018093E701DF
:100380009093E8018091E3010E94B500892BD9F098
:100390000E943D010091E5011091E6012091E701E5
:1003A0003091E801601B710B820B930B0091E90106
:1003B0001091EA012091EB013091EC01061717072B
:1003C00028073907F8F60E943D012091E501309198
:1003D000E601CB01821B930B1F910F9108958F9221
:1003E0009F92AF92BF92CF92DF92EF92FF924B011A
:1003F0005C010E943D016B017C010E943D016C1972
:100400007D098E099F09683E734081059105A8F317
:1004100021E0821A9108A108B10888EEC80E83E095
:10042000D81EE11CF11C81149104A104B10429F728
:10043000FF90EF90DF90CF90BF90AF909F908F9004
:1004400008952FB7F89460913D0170913E0180911D
:100450003F01909140012FBF0895AF92BF92CF927C
:10046000DF92EF92FF920F931F93CF93DF936C0174
:100470007B018B01040F151FEB015E01AE18BF0855
:10048000C017D10759F06991D601ED91FC91019007
:10049000F081E02DC6010995892B79F7C501DF911F
:1004A000CF911F910F91FF90EF90DF90CF90BF9071
:1004B000AF900895FC01538D448D252F30E0842F9B
:1004C00090E0821B930B541710F0CF96089501977C
:1004D0000895FC01918D828D981761F0A28DAE0F69
:1004E000BF2FB11D5D968C91928D9F5F9F73928FF0
:1004F00090E008958FEF9FEF0895FC01918D828D1C
:10050000981731F0828DE80FF11D858D90E00895E8
:100510008FEF9FEF0895FC01918D228D892F90E040
:10052000805C9F4F821B91098F739927089585E402
:1005300091E00E948B0221E0892B09F420E0822FB8
:10054000089580E090E0892B29F00E9497028111A4
:100550000C9400000895FC01A48DA80FB92FB11DC3
:10056000A35ABF4F2C91848D90E001968F739927E9
:10057000848FA689B7892C93A089B1898C918370C7
:1005800080648C93938D848D981306C00288F389C0
:10059000E02D80818F7D80830895EF92FF920F93ED
:1005A0001F93CF93DF93EC0181E0888F9B8D8C8D1F
:1005B00098131AC0E889F989808185FF15C09FB713
:1005C000F894EE89FF896083E889F98980818370D6
:1005D000806480839FBF81E090E0DF91CF911F9185
:1005E0000F91FF90EF900895F62E0B8D10E00F5FA6
:1005F0001F4F0F731127E02E8C8D8E110CC00FB67C
:1006000007FCFACFE889F989808185FFF5CFCE0113
:100610000E94AB02F1CFEB8DEC0FFD2FF11DE35AE1
:10062000FF4FF0829FB7F8940B8FEA89FB89808196
:100630008062CFCFCF93DF93EC01888D8823B9F010
:10064000AA89BB89E889F9898C9185FD03C08081DD
:1006500086FD0DC00FB607FCF7CF8C9185FFF2CF5A
:10066000808185FFEDCFCE010E94AB02E9CFDF9103
:10067000CF910895FC0101900020E9F73197AF0177
:10068000481B590BBC0185E491E00C942D028F921C
:100690009F92AF92BF920F931F93CF93DF93CDB7EB
:1006A000DEB7A1970FB6F894DEBF0FBECDBF19A27B
:1006B000423008F44AE08E010F5D1F4F842E912CCA
:1006C000B12CA12CA50194010E941408E62FB901B8
:1006D000CA01EA30F4F4E05DD801EE938D01232BDA
:1006E000242B252B79F790E080E0109719F0CD01AD
:1006F0000E943A03A1960FB6F894DEBF0FBECDBF9D
:10070000DF91CF911F910F91BF90AF909F908F90ED
:100710000895E95CE1CFCF92DF92EF92FF92CF9301
:10072000DF936B017C016DE285E491E00E94CD02D4
:10073000EC0166277727CB016C197D098E099F098B
:100740004AE00E9447038C0F9D1FDF91CF91FF90DD
:10075000EF90DF90CF900895CF93DF930E943A03FC
:10076000EC0182E191E00E943A038C0F9D1FDF9122
:10077000CF9108950E94620168E370E00E94000832
:10078000645171096931714000F161E08EE00E94AD
:100790000C0161E08EE00E94DE0061E086E00E94D4
:1007A000DE0064EF71E080E090E00E94EF0160E025
:1007B00086E00E94DE0064EF71E080E090E00E943D
:1007C000EF0185E191E00C94AC0308951F920F9224
:1007D0000FB60F9211242F933F938F939F93AF9354
:1007E000BF9380913D0190913E01A0913F01B09156
:1007F000400130913C0123E0230F2D3758F501963D
:10080000A11DB11D20933C0180933D0190933E01B9
:10081000A0933F01B093400180914101909142012A
:10082000A0914301B09144010196A11DB11D809397
:10083000410190934201A0934301B0934401BF91C1
:10084000AF919F918F913F912F910F900FBE0F907D
:100850001F90189526E8230F0296A11DB11DD2CF37
:100860001F920F920FB60F9211242F933F934F9325
:100870005F936F937F938F939F93AF93BF93EF9308
:10088000FF9385E491E00E94AB02FF91EF91BF914D
:10089000AF919F918F917F916F915F914F913F9118
:1008A0002F910F900FBE0F901F9018951F920F92CF
:1008B0000FB60F9211242F938F939F93EF93FF9373
:1008C000E0915501F09156018081E0915B01F0913A
:1008D0005C0182FD1BC0908180915E018F5F8F73F0
:1008E00020915F01821741F0E0915E01F0E0EB5B47
:1008F000FE4F958F80935E01FF91EF919F918F91B5
:100900002F910F900FBE0F901F9018958081F4CFFC
:10091000CF93DF93E5E4F1E01382128288EE93E057
:10092000A0E0B0E084839583A683B78384E091E060
:100930009183808385EC90E09587848784EC90E0B8
:100940009787868780EC90E0918B808B81EC90E09C
:10095000938B828B82EC90E0958B848B86EC90E07D
:10096000978B868B118E128E138E148E80E091E001
:10097000EDEEF1E0DF019C011D9221503040E1F7E6
:10098000C2EED1E08CE088838DE089831A8261E039
:100990008CE00E940C0160E089810E940C0180E2E1
:1009A0009EE4A0E0B0E08F839887A987BA87DF91A3
:1009B000CF910895789484B5826084BD84B58160B8
:1009C00084BD85B5826085BD85B5816085BD80911A
:1009D0006E00816080936E00109281008091810092
:1009E000826080938100809181008160809381008A
:1009F000809180008160809380008091B10084604C
:100A00008093B1008091B00081608093B0008091AC
:100A10007A00846080937A0080917A00826080936B
:100A20007A0080917A00816080937A0080917A00C8
:100A3000806880937A001092C10061E08EE00E948D
:100A40000C0160E080E10E940C0161E085E00E9401
:100A50000C0161E086E00E940C0160E086E00E94EB
:100A6000DE0060E087E00E940C01E0915501F0910A
:100A7000560182E08083E0915101F0915201108291
:100A8000E0915301F09154018FEC808310925D014D
:100A9000E0915901F0915A0186E08083E09157017D
:100AA000F0915801808180618083E0915701F0913D
:100AB0005801808188608083E0915701F09158014E
:100AC000808180688083E0915701F0915801808196
:100AD0008F7D808386E9282E312C02E416E90E945E
:100AE000620168E370E00E9400087B0100937C00D3
:100AF00080917A00806480937A0080917A0086FDEC
:100B0000FCCFC0907800D0907900B6010D2C000C7D
:100B1000880B990B0E94070726E636E64CE951E45C
:100B20000E946B070E94CF064B015C01CDEED1E025
:100B300088819981892BB9F10E9421022B013C0106
:100B40008C819D81AE81BF81B301A201481B590BED
:100B50006A0B7B0B88859985AA85BB854817590741
:100B60006A077B0700F1E881F9818A819B810995F9
:100B7000882351F081E04C855D856E857F85452B0E
:100B8000462B472B09F480E0482F50E070E060E0EE
:100B90004C875D876E877F87882309F472C04C82FB
:100BA0005D826E827F82609622E0CD3ED20708F49D
:100BB000BFCF0E942102CDEED1E088819981892B9F
:100BC00009F070C0609632E0CD3ED307B0F30E94CA
:100BD00021028DE191E00E943A03B70190E080E0AC
:100BE0004AE00E94470388E291E00E94AC038CE255
:100BF00091E00E943A03B7FE6AC0C501B4010E94A9
:100C00008B0384E391E00E94AC0384E1E81AF108CD
:100C100099E1E91691E0F90608F476C00E942102F4
:100C2000EDEEF1E020813181232B09F456C070965E
:100C3000A2E0ED3EFA07B0F387E00E94B50001970D
:100C400021F487E391E00E94AC0361E0C114F2E07B
:100C5000DF060CF460E085E00E94DE0068EC70E0E6
:100C600080E090E00E94EF0120E030E0232B09F4C7
:100C700036CF0E949702882309F42FCF0E940000EC
:100C80002CCF198218821B821A821C821D821E821E
:100C90001F82188619861A861B861C861D861E864C
:100CA0001F8681CF0E9421024C805D806E807F80F4
:100CB0006419750986099709488459846A847B8474
:100CC000641575058605970508F47CCF80CF4AE04A
:100CD000C501B4010E94470394CF2AEB33E031836E
:100CE00020831382128264837583868397838CEAC0
:100CF0009DE0A0E0B0E080879187A287B38714864B
:100D000015861686178698CF60E086E00E94DE0082
:100D100061E08EE00E940C01ECEBF0E08491833006
:100D200021F148F48130B9F08230D1F061E08EE0F9
:100D30000E94DE0081CF873011F1883041F184308C
:100D4000A9F78091800080628093800030928B00B0
:100D500020928A0071CF84B5806884BD17BD6CCFA6
:100D600084B5806284BD18BD67CF809180008068A3
:100D70008093800030928900209288005DCF80911E
:100D8000B00080688093B0001093B30055CF80917D
:100D9000B00080628093B0001093B4004DCF0E94E9
:100DA000D6066894B1110C94650708950E944A070D
:100DB00088F09F5798F0B92F9927B751B0F0E1F01C
:100DC000660F771F881F991F1AF0BA95C9F714C0CC
:100DD000B13091F00E946407B1E008950C9464076B
:100DE000672F782F8827B85F39F0B93FCCF3869505
:100DF00077956795B395D9F73EF490958095709562
:100E000061957F4F8F4F9F4F0895E89409C097FBDE
:100E10003EF490958095709561957F4F8F4F9F4FD1
:100E20009923A9F0F92F96E9BB279395F695879515
:100E300077956795B795F111F8CFFAF4BB0F11F4D8
:100E400060FF1BC06F5F7F4F8F4F9F4F16C088237F
:100E500011F096E911C0772321F09EE8872F762FB5
:100E600005C0662371F096E8862F70E060E02AF0F6
:100E70009A95660F771F881FDAF7880F96958795E2
:100E800097F9089557FD9058440F551F59F05F3F4B
:100E900071F04795880F97FB991F61F09F3F79F09C
:100EA00087950895121613061406551FF2CF46951E
:100EB000F1DF08C0161617061806991FF1CF8695A0
:100EC0007105610508940895E894BB276627772784
:100ED000CB0197F908950E947E070C94EF070E94BA
:100EE000E10738F00E94E80720F0952311F00C94F8
:100EF000D8070C94DE0711240C9465070E94420762
:100F000070F3959FC1F3950F50E0551F629FF0015C
:100F1000729FBB27F00DB11D639FAA27F00DB11D75
:100F2000AA1F649F6627B00DA11D661F829F2227FE
:100F3000B00DA11D621F739FB00DA11D621F839F85
:100F4000A00D611D221F749F3327A00D611D231F5B
:100F5000849F600D211D822F762F6A2F11249F57A9
:100F600050409AF0F1F088234AF0EE0FFF1FBB1FAC
:100F7000661F771F881F91505040A9F79E3F51056B
:100F800080F00C94D8070C9465075F3FE4F3983E1B
:100F9000D4F3869577956795B795F795E7959F5F15
:100FA000C1F7FE2B880F911D9695879597F90895A7
:100FB00097F99F6780E870E060E008959FEF80EC0C
:100FC000089500240A9416161706180609060895AF
:100FD00000240A9412161306140605060895092E15
:100FE0000394000C11F4882352F0BB0F40F4BF2B84
:100FF00011F460FF04C06F5F7F4F8F4F9F4F0895C4
:10100000AA1BBB1B51E107C0AA1FBB1FA617B7072E
:1010100010F0A61BB70B881F991F5A95A9F780954A
:101020009095BC01CD010895A1E21A2EAA1BBB1B0D
:10103000FD010DC0AA1FBB1FEE1FFF1FA217B307A4
:10104000E407F50720F0A21BB30BE40BF50B661FBA
:10105000771F881F991F1A9469F76095709580957E
:1010600090959B01AC01BD01CF010895EE0FFF1FCC
:101070000590F491E02D0994F894FFCF0000000052
:10108000CD022D025A021A038B0269027D020D0A5B
:10109000005741524E494E470044697374616E6374
:1010A000653A200020636D00506F6964733A200038
:0810B0002067004644430000E4
:107E0000112484B714BE81FFF0D085E080938100F7
:107E100082E08093C00088E18093C10086E0809377
:107E2000C20080E18093C4008EE0C9D0259A86E02C
:107E300020E33CEF91E0309385002093840096BBD3
:107E4000B09BFECF1D9AA8958150A9F7CC24DD24C4
:107E500088248394B5E0AB2EA1E19A2EF3E0BF2EE7
:107E6000A2D0813461F49FD0082FAFD0023811F036
:107E7000013811F484E001C083E08DD089C08234E0
:107E800011F484E103C0853419F485E0A6D080C0E4
:107E9000853579F488D0E82EFF2485D0082F10E0AE
:107EA000102F00270E291F29000F111F8ED06801E7
:107EB0006FC0863521F484E090D080E0DECF843638
:107EC00009F040C070D06FD0082F6DD080E0C81688
:107ED00080E7D80618F4F601B7BEE895C0E0D1E017
:107EE00062D089930C17E1F7F0E0CF16F0E7DF06D8
:107EF00018F0F601B7BEE89568D007B600FCFDCFD4
:107F0000A601A0E0B1E02C9130E011968C91119780
:107F100090E0982F8827822B932B1296FA010C0160
:107F200087BEE89511244E5F5F4FF1E0A038BF0790
:107F300051F7F601A7BEE89507B600FCFDCF97BE46
:107F4000E89526C08437B1F42ED02DD0F82E2BD052
:107F50003CD0F601EF2C8F010F5F1F4F84911BD097
:107F6000EA94F801C1F70894C11CD11CFA94CF0C13
:107F7000D11C0EC0853739F428D08EE10CD085E9AC
:107F80000AD08FE07ACF813511F488E018D01DD067
:107F900080E101D065CF982F8091C00085FFFCCF94
:107FA0009093C60008958091C00087FFFCCF809118
:107FB000C00084FD01C0A8958091C6000895E0E648
:107FC000F0E098E1908380830895EDDF803219F02E
:107FD00088E0F5DFFFCF84E1DECF1F93182FE3DFCA
:107FE0001150E9F7F2DF1F91089580E0E8DFEE27F6
:047FF000FF270994CA
:027FFE00040479
:00000001FF
